:08000000803102288731EA2F4C
:100C5C002A3086314E2686310800003401340034A7
:100C6C000034053486316E26863186312E26863147
:100C7C0015302000A9004B30A800BE30890B442E43
:100C8C00A80B442EA90B442E00003B2E80310228C9
:100C9C00FC007C08033E860087017C08033E840030
:100CAC008501000803195B2E5D2E01305E2E00308D
:100CBC008100F6017C0886008701433FF7007C0821
:100CCC00043E8600870101088631E626863108003D
:100CDC002F308600003087002330840000308500E0
:100CEC000530FD0016001A00FD0B782E233086000F
:100CFC00003087002A308400003085000530FD006C
:100D0C0016001A00FD0B862E2A3087316627863195
:100D1C000800F2000A3072020318952E962E9B2EB4
:100D2C000C30F0000030F100B12E143072020318B8
:100D3C00A02EA12EA22E962E1E3072020318A72EC4
:100D4C00A82EA92E962E283072020318AE2EAF2E86
:100D5C00B02E962E962E0800700871040319B72E2B
:100D6C00B82EE12EF501F50AC42E0130F035F10D47
:100D7C00890BBC2E0130F4007408F507F11FC72E47
:100D8C00C82EBB2E71087302031DCE2E7008720282
:100D9C00031CD12ED22ED62E7008F2027108F33B12
:100DAC000130F136F00C890BD72E0130F502031D02
:100DBC00E02EE12EC82E7308F1007208F000080036
:100DCC002000A000200886318F2686317108200073
:100DDC00A2007008A100012F8030A1070030A23DB5
:100DEC00172F8030A1070130A23D172F0030A1072B
:100DFC000130A23D172F7608F800F9017908003A66
:100E0C000319092F172F7808003A0319172F013AE5
:100E1C000319FC2E033A0319F72E013A0319F22E8B
:100E2C00172F770803191B2F1C2F412F2108860021
:100E3C00220887000130F8000A30F0000030F10081
:100E4C002008F900FA017908F2007A08F3008631DB
:100E5C00B22686317008890A342FF835890B332F66
:100E6C0078080104FB002000210886002208870076
:100E7C007B088100652F210886002208870001303D
:100E8C00F8000A30F0000030F1002008F900FA01F7
:100E9C007908F2007A08F3008631B22686317008A0
:100EAC00890A592FF835890B582F78080106FB0051
:100EBC00200021088600220887007B08810008009A
:100ECC00FC007C0886008701010803196E2F6F2F28
:100EDC00802F7C088600870101030319762F772F5A
:100EEC00802F7C088600870102300106031D7F2FAE
:100EFC00802FB42F0230F600F7017C08043E8600E8
:100F0C00870101088631E6268731F6017C088600C8
:100F1C008701423FF7007C08043E860087010108E8
:100F2C008631E6268731F601F60A7C0886008701B1
:100F3C00423FF7007C08043E860087010108863199
:100F4C00E62687310330F600F7017C08043E860064
:100F5C00870101088631E6268731DF2F0230F60043
:100F6C00F7017C08043E8600870101088631E626DD
:100F7C008731F601F7017C08043E860087010108E1
:100F8C008631E6268731F601F60AF7017C08043E25
:100F9C008600870101088631E62687310330F6008A
:100FAC00F7017C08043E8600870101088631E6269D
:100FBC0087317C08033E860087017C08023E840052
:100FCC0085010008810008003330840086308500DC
:100FDC001200AF001200B0001200B1001200B200FB
:100FEC001200B300AA01AB01AC01AD01AE012000AF
:040FFC008631382ED4
:020000040001F9
:04000E00BC3FFF3FB5
:00000001FF
